:020000040000FA
:0400000080313D28E6
:100008007E1480318B1E09280A2812280B1D0D2802
:100018000E28122885316D2580313B280B1F1528A5
:1000280016283B282100111E1A281B2826282000E4
:10003800111E1F282028262859088A0058080A0057
:1000480080313B282100911E2A282B283B2820009C
:10005800911E2F2830283B2857088A0056080A0086
:1000680080313B283B283B283B283B283B287E10F7
:10007800090080313F28B03084008B308500623021
:1000880086000030870006308B31AA2380319630F5
:1000980084008C308500C030860000308700203016
:1000A8008B31AA238031F901FA01FB01FC014A30A6
:1000B80084000030850018308B31A4238031A030B3
:1000C80084000030850020308B31A42380317E10DD
:1000D80020008131E9292000B0000C303002031CD7
:1000E800762877287A280C30B0027A280C30A000BD
:1000F8000030A1003008AA00AB012A08A2002B0892
:10010800A3008E3141268031200021088500200877
:1001180084008435850D823084079030853D003F0A
:10012800AD00013FAE000C30A0000030A100300847
:10013800AA00AB012A08A2002B08A3008E319F2633
:10014800803120002008AC002C08AF0008302F02B6
:10015800031CAF28B028B5280730AA002A08AF002A
:10016800B5282E08AB002D08AA002B08AA00AB0161
:100178002F352A04AC002C08AF000310A90C03107B
:10018800A90C0310A90CB20108303202031CCD28B7
:10019800CE28D028E728E7283235A03E86008701F8
:1001A80001083006031DD928DA28DC28E728E728C3
:1001B8000130AA002A08B20708303202031CE528D9
:1001C800E628D028E72829080319EB28EC288429F1
:1001D80008303206031DF128F2281529B20108302B
:1001E8003202031CF828F928FB28152915290314BD
:1001F800320DA03E8600870101080F39003A031D21
:10020800062907290929152915290130AA002A08CC
:10021800B20708303202031C12291329FB281529BA
:1002280015290314320DA03E860087018117300876
:10023800AA003235A03E860087012A088100A00165
:100248003208203E8D31B9258031200029090F3927
:10025800AA006308AB000330AB35FF3E031D30290D
:100268002B352A04AC002C08A0003208303E8D3112
:10027800B925803120002D08AA002A08A0003208DC
:10028800103E8D31B925803120002F081038AA0082
:100298002A08A0003208203E8D31B925803120007F
:1002A800B10108303102031C5A295B295D29DE2976
:1002B800DE290314310DA03E8600870101080F399D
:1002C800003A03196829692978290314310DA03ED9
:1002D8008600870101080F39AA00AA0301082A0627
:1002E800F0392A06810078290130AA002A08B107C6
:1002F80008303102031C812982295D29DE29DE2983
:1003080008303206031989298A29E8290314320D8D
:10031800A03E86008701811F92299329E829B1010F
:1003280008303102031C99299A299C29CC29CC2907
:100338000314310DA03E8600870101080F39AA0079
:100348000314320DA03E8600870101080F39AB0067
:100358002A082B020318B129B229C1290314310D27
:10036800A03E8600870101080F39AA00AA030108E8
:100378002A06F0392A068100C1290130AA002A0874
:10038800B10708303102031CCA29CB299C29CC2982
:100398000314320DA03E8600870181132F08AA009E
:1003A8002A08A0003208203E8D31B9258031DE2987
:1003B800E829DE2903142000320DA03E86008701BB
:1003C8000108F0390738810008002000C701C8017A
:1003D8008B31EF2381311A302000BB00F830890BB4
:1003E800F329BB0BF3290000F92922008C15FC29FD
:1003F8008C31782481318F310927813115302000E3
:10040800BC004B30BB00BE30890B082ABB0B082A46
:10041800BC0B082A000001302000BB003B08DB00B1
:100428008B31FF2381318B31B62381311B2A210087
:100438000C161E2A270093128B170B17232A20004D
:100448005B080319282A292AAC2A1030BB003B086C
:10045800AF007A08BC003C08B000C03083312523C7
:1004680081312000BD003D08C6007908031D3D2AE2
:100478003E2A402AC601402A09307A020318452A32
:10048800462A542A1030BB003B08AF007A08013EC8
:10049800BC003C08B000D030833125238131622A6A
:1004A80020302000A0000030A1001030A200003051
:1004B800A300D030873123278131622A8B31BF23B3
:1004C80081318F310927813120004608BB003B0864
:1004D800A40000308C310F2481318B31C823813145
:1004E8002000DB012430BB003B08A00002308D3126
:1004F800B925813129302000BB003B08A00003301A
:100508008D31B925813120006408BB003B08A0006B
:1005180004308D31B925813120006508BB003B08C6
:10052800A00005308D31B925813120006608BB0057
:100538003B08A00006308D31B925813120006708BD
:10054800BB003B08A00007308D31B9258131AC2AAA
:100558008B3190238131003A031DB32AB42AB62A7D
:10056800232A232A8D31652581312000BB003B08D1
:10057800C9004908BB000730BB36890BC02A3B08B5
:100588000319C72AC82AE02AC8010F304905BB0049
:100598003B086206031DD12AD22ADD2A4908BB007E
:1005A8000430BB36890BD52A3B08BC003C08C70081
:1005B800232AC701232A232A4908BB0048083E3EAC
:1005C800860087013B0881000130BB003B08C80753
:1005D800112B023048060319F22AF32AF52A232A96
:1005E800232AA9013E0880316F2081312000C801EB
:1005F800232A023048060319022B032B052B232A32
:10060800232A3F08BB003B08A9003E0880316F2021
:1006180081312000C801232A232A4708BB00BC01D6
:100628003C08003A0319192B232A3B08083A0319F6
:10063800ED2A013A0319FD2A232A232A232A803185
:100648003D282000B9003008B100B2013108A000EF
:100658003208A1000D30A2000030A3008C31FA242A
:10066800833100302000B3009030B40020083307F5
:10067800B7002108343DB8003808A1003708A000A9
:100688008D314125833120002008B1003108BA009E
:100698003808A1003708A0003A08B100B2013108B3
:1006A800A2003208A30039088731CE2783312030D1
:1006B8002000B1003A083907B200320886008701E5
:1006C800310881000130B1003108BA073A08B10099
:1006D8003108B500312C6208B1003108A900390889
:1006E8003A078F31792783312000B2003208BA07E0
:1006F800532C6308B100B2013108A0003208A100F0
:100708000C30A2000030A3008C31FA24833163300E
:100718002000B3008630B40020083307B700210852
:10072800343DB8003808A1003708A0008D314125B4
:10073800833120002008B1003108B6003808A10034
:100748003708A0003608B100B2013108A20032080B
:10075800A30039083A078731CE27833120003608AD
:10076800B1003108BA07532C65080F39B1003108B8
:10077800A90039083A078F31792783312000B20060
:100788003208BA07532C650E0F39B1003108A90099
:1007980039083A078F31792783312000B2003208AF
:1007A800BA07532C67080F39B1003108A900390876
:1007B8003A078F31792783312000B2003208BA070F
:1007C800532C670E0F39B1003108A90039083A07D0
:1007D8008F31792783312000B2003208BA07532CB1
:1007E80064080F39B1003108A90039083A078F3178
:1007F800792783312000B2003208BA07532C640EDF
:100808000F39B1003108A90039083A078F31792723
:1008180083312000B2003208BA07532C66080F391A
:10082800B1003108A90039083A078F317927833197
:100838002000B2003208BA07532C660E0F39B100F7
:100848003108A90039083A078F3179278331200008
:10085800B2003208BA07532C532C3008B100B20149
:100868003208003A0319392C532C310884000A3015
:1008780004020318532C88310435003E8200532C9F
:100888002030B1003A083907B200320886008701E3
:10089800310881000130B1003108BA07532C2F0804
:1008A8003A02031C582C592C442C5A2C35085C2C21
:1008B8000800F300582D700820006207F100710845
:1008C800F40010307402031C6A2C6B2C6E2C003060
:1008D8006C2D6C2D7408F1007108E20001306C2D4C
:1008E8006C2D200063087007F1007108F4001030C7
:1008F8007402031C802C812C842C00306C2D6C2DF0
:100908007408F1007108E30001306C2D6C2D200093
:1009180065080F397007F1007108F400103074028F
:10092800031C972C982C9B2C00306C2D6C2D650883
:100938007406F0397406E50001306C2D6C2D20002A
:10094800650E0F397007F1007108F4001030740259
:10095800031CAF2CB02CB32C00306C2D6C2D7408FC
:10096800F100F10E650871060F397106E5000130D6
:100978006C2D6C2D200067080F397007F100710885
:10098800F40010307402031CCA2CCB2CCE2C00307F
:100998006C2D6C2D67087406F0397406E700013079
:1009A8006C2D6C2D2000670E0F397007F10071084F
:1009B800F40010307402031CE22CE32CE62C003007
:1009C8006C2D6C2D7408F100F10E670871060F3953
:1009D8007106E70001306C2D6C2D200064080F397A
:1009E8007007F1007108F40010307402031CFD2C2C
:1009F800FE2C012D00306C2D6C2D64087406F03926
:100A08007406E40001306C2D6C2D2000640E0F3943
:100A18007007F1007108F40010307402031C152DE2
:100A2800162D192D00306C2D6C2D7408F100F10E67
:100A3800640871060F397106E40001306C2D6C2DC5
:100A4800200066080F397007F1007108F4001030B3
:100A58007402031C302D312D342D00306C2D6C2D7B
:100A680066087406F0397406E60001306C2D6C2DAA
:100A78002000660E0F397007F1007108F40010307D
:100A88007402031C482D492D4C2D00306C2D6C2D03
:100A98007408F100F10E660871060F397106E60058
:100AA80001306C2D6C2D6A2D7308F100F20172086B
:100AB800003A0319602D6A2D710884000A30040277
:100AC80003186A2D88310435143E820000306C2DDD
:100AD8000800F8010B117C08200095005A08F50061
:100AE8007508FB008D31E5258531F7010430770263
:100AF800031C7F2D802D822DA12DA12D7708523E1C
:100B0800860087010108031D8A2D8B2D8D2D962DBA
:100B1800962D0130F5007708523E8600870175084A
:100B28008107962D0130F5007508F7070430770224
:100B3800031C9F2DA02D822DA12D01307B05F500D2
:100B4800013020005A05F60076087506031DAD2D04
:100B5800AE2DBB2D02307B05F50002305A05F6009C
:100B6800760875060319B92DBA2DDA2DBB2D5A084A
:100B78000339031DC02DC12DDA2D03307B05F50087
:100B88007503031DC82DC92DCC2DF801F803DA2DE6
:100B980003307B05F50002307506031DD42DD52DD5
:100BA800DA2DF801F80ADA2DDA2DDA2D780803198A
:100BB800DE2DDF2D1A2E79080319E32DE42DF82DEB
:100BC8007808F5007508F0007A0884315D248531CD
:100BD800003A0319F02DF12D1A2E0130F500750891
:100BE8002000DB001A2E1A2E7808803A7F3E031C5C
:100BF800FE2DFF2D052E09307A02031C042E052E2A
:100C08000F2EF81F082E092E1A2E7A0803190D2EFA
:100C18000E2E1A2E0F2E7808F5007508FA070130E7
:100C2800F5007508DB001A2E1A2E1A2E04307B05E3
:100C3800F500043020005A05F600760875060319F9
:100C4800262E272E3A2E5A192A2E2B2E3A2E79087E
:100C580003192F2E312E0130322E0030F500750881
:100C6800F9000130F5007508DB003A2E08307B05E5
:100C7800F50008305A05F600760875060319452E62
:100C8800462E4F2EDA19492E4A2E4F2E0130F500E6
:100C98007508D200622E08307B05F50008305A0529
:100CA800F6007608750603195A2E5B2E622EDA1D99
:100CB8005E2E5F2E622ED201622E622E08005534FF
:100CC8007334653472340034003400340034003432
:100CD800003400340034563469346F346C34693469
:100CE8006E340034003400340034003400344734A7
:100CF8007534693474346134723400340034003427
:100D08000034003400345034693461346E346F3444
:100D180000340034003400340034003400344634E5
:100D28006C34753474346534003400340034003461
:100D380000340034003443346C3461347234693420
:100D48006E346534743400340034003400344F3465
:100D580062346F34653400340034003400340034B5
:100D68000034003400345434723475346D347034C3
:100D780065347434003400340034003400344F34A3
:100D88007234673461346E34003400340034003413
:100D980000340034003448346F3472346E34003414
:100DA8000034003400340034003400340034533448
:100DB80079346E34743468340034003400340034C8
:100DC80000340034003448346134723470340034F0
:100DD8000034003400340034003400340034563415
:100DE8006934623472346134703468346F346E3408
:100DF800653400340034423461347334733420343D
:100E0800733479346E3474346834003400344234C2
:100E18006134733473342034613463346F3475341B
:100E280073347434003445346C346534633420349A
:100E38006734753469347434613472340034200092
:100E4800A8002808A4002408A90022082304031DD8
:100E58002E2F2F2F312FCD2FCD2F2008A40029087A
:100E680086008701240881002008A4002208FF3E8C
:100E78002907A5002508860087012408810000307D
:100E8800230203300319220203184B2F4C2F4E2F35
:100E9800CD2FCD2F2008A400290A86008701240819
:100EA80081002008A4002908023E86008701240842
:100EB80081002008A4002208FE3E2907A500250875
:100EC80086008701240881002008A4002208FD3E2E
:100ED8002907A5002508860087012408810000301D
:100EE800230207300319220203187B2F7C2F7E2F41
:100EF800CD2FCD2F2008A4002908033E86008701A6
:100F0800240881002008A4002208FC3E2907A50027
:100F18002508860087012408810000302302093053
:100F2800031922020318992F9A2F9C2FCD2FCD2F0A
:100F38002909A4002A09A500A40A0319A50A003052
:100F48002405A60000302505A7002608A4002408CB
:100F5800A9072608A2022708A33BFC30A205FF30F8
:100F6800A305C62F2008A4002908860087012408A5
:100F780081000130A2020030A33B0130A400240804
:100F8800A907C62F22082304031DCB2FCC2FB62F69
:100F9800CD2F08002000A9002108A6002008A500E0
:100FA8002908A4002408A800F12F25088400260891
:100FB80085000008A4002408A7000130A507003018
:100FC800A63D2708A4002808860087012408810078
:100FD8000130A4002408A807F12F0130A202003034
:100FE800A33B220A031DFC2F230A031DFC2FFD2F00
:060FF800D92FFE2F0800B6
:1010000083316F2B83317D2B8331B82B8331C72BF9
:101010008331D62B8331E52B8331F42B8431032CA0
:101020008431122C8431212C84315F2C8431752C35
:1010300084318B2C8431A32C8431BE2C8431D62C6A
:101040008431F12C8531092D8531242D85313C2DBC
:1017200020005C08932B0800163021009700080069
:1017300020002108D7002008D6000800200021083A
:10174000D9002008D8000800640080010131890B0D
:10175000A52B0034FE0012001E00FE0BAB2B003444
:101760000034033400340034003400348E31122647
:101770008B3120005A08A3002308FB0008000C301E
:101780008C313E248B313130890BC42B0000080092
:101790000D308C313E248B313130890BCD2B000044
:1017A00008007030210099009A01980122009601EA
:1017B000D92B21001A1FDD2BDE2BD92BDF2B0800A4
:1017C00021001508C03917389500F0302000950029
:1017D000F030A0002008FC000B118B1608008C31A3
:1017E000D8248B318B31D1238B318B3194238B31A6
:1017F0008B31E0238B318D318E258B310800220017
:101800008E16022C0E15042C8E11062C1A30890B04
:10181000072C00320B2C22008E150E2C0800200005
:10182000A6002830A5002508A00026088C31242415
:101830008C312000240780388C313E248C313130AB
:10184000890B202C000008002000A300A201282CF6
:10185000231C2B2C2C2C312C2008A1002108A207A2
:10186000312C0310A00D0310A30C2308031D392CE9
:101870003A2C282C3B2C22083D2C08002000A000EC
:1018800022008E12432C0E12452C2000200822002C
:101890008D004A2C8E144C2C00000000000000002B
:1018A0000000522C22008E10562C562C8E16582CCE
:1018B0000032003208002000A00022008E12602CAE
:1018C0000E16622C2000200822008D00672C8E143A
:1018D000692C000000000000000000006F2C2200B6
:1018E0008E10732C732C8E16752C0032003208006B
:1018F0003F308C313E248C313130890B7D2C0000FF
:1019000001308C313E248C310B302000A10062303C
:10191000890B882CA10B882C00000C308C313E24C4
:101920008C313130890B922C000008002034203497
:10193000203420344C3461347A34793420342734E0
:101940003834383420342034203420342034613486
:101950007334643472346534613420344034203458
:1019600032343034313438342034BC3423009D1CBC
:10197000BA2CBB2CBE2C1D121D16BE2C1908F00053
:1019800020005E08B03E86008701700881000130AB
:10199000F0007008DE0710305E02031CD02CD12C42
:1019A000D32CDE01D32C0130F0007008DC070800D6
:1019B00022008C018D0124308E000830210090001F
:1019C00020308C008D01C1308E0023008E018D01EE
:1019D0008C01240090018D0120308C0001308E009C
:1019E0002100951325008C018D018E0122009D019F
:1019F0009C0108002000A401A501FE2C201C012D43
:101A0000022D062D2208A4072308A53D0130A2358A
:101A1000A30D890B072D0130A136A00C890B0C2DCD
:101A200020082104031D152D162DFE2C172D250829
:101A3000A1002408A0001C2D0800083020005F022F
:101A40000318232D242D3D2D60084A3E8600870172
:101A5000010823009A000130F00070082000E00720
:101A600008306002031C352D362D382DE001382D4D
:101A70000130F0007008DF07402D21001112402DC9
:101A8000080020002108A5002008A4004C2D0130EA
:101A9000A0070030A13D4C2D2008840021088500BE
:101AA0001200031D542D552D472D562D2409A2003B
:101AB0002509A300A20A0319A30A20082207A000EF
:101AC0002108233DA100642D08002000A101692DFB
:101AD000692D5C0803196D2D6E2D692D6F2D5D0824
:101AE000B03E860087010108A0002008A100013057
:101AF000A0002008DD0710305D02031C802D812D21
:101B0000832DDD01832D2100911201302000DC02A4
:101B100021009116200021088D2D0800210091122E
:101B2000B6302000A0000C30A1008B3198238D31FD
:101B3000210011121D302000A0000D30A1008B31BA
:101B40009E238D31083023009F0090309D0024306B
:101B50009E007F309B009C012000E101E0010830E5
:101B6000A2002208DF00DE01DD01DC012100911668
:101B700008002000A10022000E12BE2D8E12C02DE2
:101B8000200021088D00C42D22000E11C82DC82D63
:101B90000E15CB2DCB2D8E160430890BCD2DD02DCF
:101BA00022000E16D42DD42D8E12200020088D0078
:101BB000D92D22000E11DD2DDD2D0E15E02DE02D8D
:101BC0008E161030890BE22D08002000DA01F20198
:101BD00008307202031CED2DEE2DF02D112E112E6A
:101BE00022000C08F83972048C000000000000008C
:101BF000000020000E080139F000720A002EF035B6
:101C0000890BFF2D7008F1007108DA040130F00033
:101C10007008F20708307202031C0F2E102EF02DF0
:101C2000112E08002000DA01A20108302202031C54
:101C30001A2E1B2E1D2E402E402E22000C08F83985
:101C40002000220422008C000000000000000000A0
:101C500020000E080139A000220A2F2EA035890B82
:101C60002E2E2008A1002108DA040130A00020084F
:101C7000A20708302202031C3E2E3F2E1D2E402EAE
:101C800008002000A601A31F462E472E4F2EA209B2
:101C9000A309A20A0319A30AA601A60A4F2EA11F8F
:101CA000522E532E592EA009A109A00A0319A10AE8
:101CB000592E2008210403195E2E5F2E8E2EA501B9
:101CC000A50A6C2E0130A035A10D890B632E0130C1
:101CD000A4002408A5076C2EA11F6F2E702E622E63
:101CE000722E722E21082302031D782E2008220254
:101CF000031C7B2E7C2E812E2008A2022108A33BF0
:101D0000812E0130A136A00C890B822E0130A50254
:101D1000031D8B2E8C2E722E8E2E8E2E26080319CE
:101D2000922E932E992EA209A309A20A0319A30A9F
:101D3000992E2308A1002208A0009E2E0800200052
:101D4000A601A11FA42EA52EAD2EA009A109A00AAF
:101D50000319A10AA601A60AAD2EA31FB02EB12E0B
:101D6000BB2EA209A309A20A0319A30A0130A400E9
:101D70002408A606BB2EA701A801200821040319E8
:101D8000C22EC32EF82EA501A50AD02E0130A035F3
:101D9000A10D890BC72E0130A4002408A507D02E61
:101DA000A11FD32ED42EC62ED62ED62E0130A73567
:101DB000A80D890BD72E21082302031DE12E200830
:101DC0002202031CE42EE52EEB2E2008A20221089D
:101DD000A33B2714EB2E0130A136A00C890BEC2E6F
:101DE0000130A502031DF52EF62ED62EF82EF82E64
:101DF00026080319FC2EFD2E032FA709A809A70A00
:101E00000319A80A032F2808A1002708A000082FFB
:101E1000080080308C313E248F313130890B0E2FF9
:101E200000002000A30110302302031C182F192FDB
:101E30001B2F412F412F2308C03E86008701010838
:101E4000A1002108A2002208031D272F282F2D2FD3
:101E50002030A1002108A2002D2F22088C315B2404
:101E60008F313130890B322F000001302000A1006A
:101E70002108A30710302302031C3F2F402F1B2FE4
:101E8000412FA8308C313E248F313130890B462FC1
:101E90000000203020002302031C4F2F502F522F10
:101EA000782F782F2308C03E860087010108A10003
:101EB0002108A2002208031D5E2F5F2F642F20300F
:101EC000A1002108A200642F22088C315B248F31ED
:101ED0003130890B692F000001302000A10021085A
:101EE000A30720302302031C762F772F522F782F41
:101EF00008002000AE002E08AA002A08AD000A3013
:101F000029020318842F852F882FEF2FEF2F912F71
:101F10006430290203188D2F8E2F912FC02FC02FD0
:101F2000912F6430A0000030A1002908AA00AB0165
:101F30002A08A2002B08A3008E319F268F31200093
:101F40002008303EAC002D08860087012C08810057
:101F50000130AA002A08AD076430A0000030A100BB
:101F60002908AA00AB012A08A2002B08A3008E3181
:101F700041268F3120002008AC002C08A900C02F7A
:101F80000A30A0000030A1002908AA00AB012A08ED
:101F9000A2002B08A3008E319F268F31200020083D
:101FA000303EAC002D08860087012C0881000130EE
:101FB000AA002A08AD070A30A0000030A1002908B5
:101FC000AA00AB012A08A2002B08A3008E314126EB
:101FD0008F3120002008AC002C08A900EF2F290821
:101FE000303EAA002D08860087012A0881000130B2
:101FF000AA002A08AD072E03FF3A2D07FF2F08007D
:102000004334683461346E346E3465346C34003477
:102010000034003400340034003449346E347334F6
:10202000743400340034003400340034003400349C
:10203000003400344334613472342E34203461343B
:1020400074347434613463346B3400340034433496
:10205000613472342E342034643465346334613432
:1020600079340034003400344334613472342E3413
:1020700020347334753473347434613469346E3499
:1020800000344334613472342E3420347234653475
:102090006C34653461347334653400344D346F34DA
:1020A00064342E34203461347434743461346334D1
:1020B0006B34003400344D346F3464342E342034A7
:1020C000643465346334613479340034003400346A
:1020D0004D346F3464342E34203473347534733497
:1020E0007434613469346E3400344D346F34643484
:1020F0002E342034723465346C3465346134733476
:10210000653400349A340034A3340034AD340034E0
:10211000B8340034C2340034CE340034DA340034FD
:10212000E7340034F534003404340134133401341A
:04213000233401341F
:020000040001F9
:04000E00E3FFFFFF0E
:00000001FF
